:100000000C943D000C9400000C9400000C94000033
:100010000C9400000C9400000C9400000C94000060
:100020000C9400000C9400000C9400000C94000050
:100030000C9400000C9400000C9400000C94000040
:100040000C9400000C9400000C9400000C94000030
:040050000C9400000C
:10007A00BFE5BDBFB4E0BEBFB3E0BABBEBDF0BB3B5
:10008A00B2E00B270BBBE6DF0BB3B1E00B270BBBD0
:04009A00F5CFFFCFD0
:10005E00B2ECB2BFB3E0B3BF08B70170003009F421
:0C006E00FBCFB0E0B3BFB1E0B8BF089515
:0A00540005900D920197E1F7089561
:00000001FF
