:100000000C942F000C9400000C9400000C94000041
:100010000C9400000C9400000C9400000C94000060
:100020000C9400000C9400000C9400000C94000050
:100030000C9400000C9400000C9400000C94000040
:100040000C9400000C9400000C9400000C94000030
:040050000C9400000C
:10005E00BFE5BDBFB4E0BEBFBFE0BABBB9B3B4FF2E
:10006E0025C0B0E0B0936000B093610020916000B5
:10007E00309161000FE010E002171307BCF0009101
:10008E0060000BBBB9B3B4FD06C0B0E0B093600026
:10009E00B09361000BC000916000109161000F5F82
:1000AE001F4F0093600010936100E0CFD7CFFFCFBA
:0000BE0042
:0A00540005900D920197E1F7089561
:00000001FF
