:100000000C942F000C9400000C9400000C94000041
:100010000C9400000C9400000C9400000C94000060
:100020000C9400000C9400000C9400000C94000050
:100030000C9400000C9400000C9400000C94000040
:100040000C9400000C9400000C9400000C94000030
:040050000C9400000C
:10005E00BFE5BDBFB4E0BEBF0E947800BFEFB7BB27
:10006E00BFEFBABBB8B3B160B8BBB0E0B093740029
:10007E00B093750020917400309175000AE010E085
:10008E002017310714F50091740010917500980136
:10009E00220F331F00E610E0F901E00FF11F00817F
:1000AE000BBB29E216E900E80A95F1F71A95E1F77C
:1000BE002A95D1F700917400109175000F5F1F4FB4
:0E00CE000093740010937500D5CFCCCFFFCFF8
:0A00540005900D920197E1F7089561
:1000F000A0E6B0E0ECEDF0E084E190E00E942A00A0
:02010000089560
:1000DC0090008000F800820092009900B000A4000B
:0400EC00F900C00057
:00000001FF
