:100000000C9450000C9400000C9400000C94000020
:100010000C9400000C9400000C9400000C94000060
:100020000C9400000C943D000C9400000C94000013
:100030000C9400000C9400000C9400000C94000040
:100040000C9400000C9400000C9400000C94000030
:040050000C9400000C
:1000A000BFE5BDBFB4E0BEBFB3E0BABBB5E0B3BF10
:1000B000BDEFB2BFB1E0B9BFBFB7B068BFBF0BB350
:0E00C000B1E00B270BBBCBDFCADFF9CFFFCFC0
:10005E00BDE3B4BDB7E0B5BD08B70074003009F418
:0C006E00FBCFB0E4B8BFB0E0B5BD089512
:0A00540005900D920197E1F7089561
:10007A000F93EF93FF93BF93BFB7BF930BB3B2E056
:10008A000B270BBBBDEFB2BFBF91BFBFBF91FF91A3
:06009A00EF910F91189593
:00000001FF
