:100000000C9440000C942F000C9400000C94000001
:100010000C9400000C9400000C9400000C94000060
:100020000C9400000C9400000C9400000C94000050
:100030000C9400000C9400000C9400000C94000040
:100040000C9400000C9400000C9400000C94000030
:040050000C9400000C
:10008000BFE5BDBFB4E0BEBF0E94AB00BFE0BABBDE
:10009000BFEFB5BFBFB7B068BFBFB0ECBBBF00918B
:1000A000600010916100103009F4013041F5B0E0BA
:1000B000B0936200B09363002091620030916300BE
:1000C00003E010E002171307CCF0009162000F5F0D
:1000D0000BBB25E11BE40FEB0A95F1F71A95E1F74D
:1000E0002A95D1F7000000916200109163000F5F24
:1000F0001F4F0093620010936300DECF28C0B3E06F
:10010000B0936200B0E0B093630020916200309140
:10011000630000E010E020173107CCF0009162008E
:100120000F5F0BBB25E11BE40FEB0A95F1F71A9566
:10013000E1F72A95D1F70000009162001091630069
:10014000015010400093620010936300DECFA7CFF0
:02015000FFCFDF
:0A00540005900D920197E1F7089561
:10015600A0E6B0E0E2E5F1E084E090E00E942A004B
:020166000895FA
:10005E00EF93FF93BF93BFB7BF93B1E0B093600030
:10006E00B0E0B0936100BF91BFBFBF91FF91EF9120
:02007E001895D3
:020152000100AA
:020154000000A9
:00000001FF
