:100000000C9474000C942F000C9400000C940000CD
:100010000C9400000C9400000C9400000C94000060
:100020000C9400000C9400000C9400000C94000050
:100030000C9400000C9400000C9400000C94000040
:100040000C9400000C9400000C9400000C94000030
:040050000C9400000C
:1000E800BFE5BDBFB4E0BEBFB1E0B4BBB1E0BABBD1
:1000F800BFB7B068BFBFB3E0B5BFB0E4BBBF05B31F
:10010800B1E00B2705BB29E216E900E80A95F1F7EB
:0C0118001A95E1F72A95D1F7F2CFFFCF3E
:0A00540005900D920197E1F7089561
:10005E000F931F932F933F93EF93FF93BF93BFB7CE
:10006E00BF93B0E0B5BBB1E0BBBB25E11BE40FEB2A
:10007E000A95F1F71A95E1F72A95D1F70000B0E04D
:10008E00BBBB25E11BE40FEB0A95F1F71A95E1F7DF
:10009E002A95D1F70000B1E0BBBB25E11BE40FEBC5
:1000AE000A95F1F71A95E1F72A95D1F70000B0E01D
:1000BE00BBBB25E11BE40FEB0A95F1F71A95E1F7AF
:1000CE002A95D1F70000BF91BFBFBF91FF91EF916D
:0A00DE003F912F911F910F9118958B
:00000001FF
