:100000000C947B000C9459000C9400000C9400009C
:100010000C9400000C9400000C9400000C94000060
:100020000C9400000C9400000C9400000C94000050
:100030000C9400000C9400000C9400000C94000040
:100040000C9400000C9400000C9400000C94000030
:040050000C9400000C
:1000F600BFE5BDBFB4E0BEBF0E94C700CDB7DEB747
:100106002297CDBFDEBF2196BFEFB4BBBFEFBABB10
:10011600BFB7B068BFBFB3E0B5BFB0E4BBBF009127
:10012600740010917500088319834AE050E000912D
:100136007400109175008BDF8C019801220F331F1C
:1001460000E610E0F901E00FF11F008105BB4AE06F
:1001560050E0088119817BDF8B019801220F331F44
:1001660000E610E0F901E00FF11F00810BBBD7CFCD
:02017600FFCFB9
:0A00A80005900D920197E1F708950D
:10005400C801BA0197FB092E07260AD077FD04D000
:100064000CD006D000201AF4709561957F4F089546
:10007400F6F7909581959F4F0895AA1BBB1B51E1FC
:1000840007C0AA1FBB1FA617B70710F0A61BB70B04
:10009400881F991F5A95A9F780959095BC01CD01A9
:0400A400089508951E
:10018E00A0E6B0E0E8E7F1E086E190E00E945400DE
:02019E000895C2
:1000B2000F931F93EF93FF93BF93BFB7BF9300912B
:1000C2007400109175000F5F1F4F0093740010931E
:1000D2007500103009F4053129F4B0E0B0937400D2
:1000E200B0937500BF91BFBFBF91FF91EF911F9178
:0400F2000F911895BD
:10017800C000F900A400B000990092008200F800C5
:040188008000900063
:02018C00000071
:00000001FF
