:100000000C943D000C9400000C9400000C94000033
:100010000C9400000C9400000C9400000C94000060
:100020000C9400000C9400000C9400000C94000050
:100030000C9400000C9400000C9400000C94000040
:100040000C9400000C9400000C9400000C94000030
:040050000C9400000C
:10007A00BFE5BDBFB4E0BEBFB1E0BABB0BB3B1E0F0
:0C008A000B270BBBE7DFE6DFF9CFFFCF51
:10005E00B5E0B3BFBDE3B2BF08B70170003009F41D
:0C006E00FBCFB1E0B8BFB0E0B3BF089515
:0A00540005900D920197E1F7089561
:00000001FF
