:100000000C9443000C9400000C9400000C9400002D
:100010000C9400000C9400000C9400000C94000060
:100020000C9400000C9400000C9400000C94000050
:100030000C9400000C9400000C9400000C94000040
:100040000C9400000C9400000C9400000C94000030
:040050000C9400000C
:10008600BFE5BDBFB4E0BEBFB1E0BABB0BB3B1E0E4
:0A0096000B270BBBE1DFFACFFFCF11
:10005E00B0E0BFBDB1E0BEBDB0E0BDBDB0E0BCBD67
:10006E0008B70470003009F4FBCFB4E0B8BFB0E0BD
:08007E00BFBDB0E0BEBD089556
:0A00540005900D920197E1F7089561
:00000001FF
