:100000000C9440000C9400000C9400000C94000030
:100010000C9400000C9400000C9400000C94000060
:100020000C9400000C942F000C9400000C94000021
:100030000C9400000C9400000C9400000C94000040
:100040000C9400000C9400000C9400000C94000030
:040050000C9400000C
:10008000BFE5BDBFB4E0BEBFB1E0BABBB1E0B7BB36
:10009000B2E0B3BFB6E0B2BFB1E0B9BFBFB7B068BE
:1000A000BFBFB6B3B1FBB8B3B0F9B8BBFACFFFCF9F
:0000B00050
:0A00540005900D920197E1F7089561
:10005E00EF93FF93BF93BFB7BF930BB3B1E00B27E3
:10006E000BBBB6E0B2BFBF91BFBFBF91FF91EF9187
:02007E001895D3
:00000001FF
