:100000000C94A6000C9400000C9400000C940000CA
:100010000C9400000C9400000C9400000C94000060
:100020000C9400000C9400000C9400000C94000050
:100030000C9400000C9400000C9400000C94000040
:100040000C9400000C9400000C9400000C94000030
:040050000C9400000C
:10014C00BFE5BDBFB4E0BEBF0E94CA002F923F9274
:10015C00D8DFB2E82B2E78DFB0E62B2EB0E03B2EAA
:10016C00B4DFB4EC2B2E70DFB6E62B2EB0E03B2EBA
:0C017C00ACDF00E010E03F902F90FFCFC0
:10010E002F92BFEFB4BBBFEFB7BB25E01FE002EFEE
:10011E000A95F1F71A95E1F72A95D1F7B8E32B2E48
:10012E0092DFBCE02B2E8FDFB6E02B2E8CDFB1E002
:0E013E002B2E89DFB0E82B2E86DF2F90089540
:1000540028BA05B30E7F05BB0D7F05BB046005BB45
:1000640025E01FE002EF0A95F1F71A95E1F72A95CA
:10007400D1F7B5B3BB7FB5BB25E01FE002EF0A950E
:0C008400F1F71A95E1F72A95D1F70895DD
:1000D60020E030E0F901E20DF31D0081003099F0D7
:1000E600F901E20DF31D00813F932F933F922F926A
:1000F600202ECBDF2F903F902F913F9189010F5FEC
:080106001F4F9801E7CF089597
:1000900028BA05B3016005BB0D7F05BB046005BB35
:1000A00025E01FE002EF0A95F1F71A95E1F72A958E
:1000B000D1F7B5B3BB7FB5BB25E01FE002EF0A95D2
:0C00C000F1F71A95E1F72A95D1F70895A1
:0A00CC0005900D920197E1F70895E9
:10019400A0E6B0E0E8E8F1E08CE090E00E946600C0
:0201A4000895BC
:0601880048656C6C6F007D
:06018E00576F726C640063
:00000001FF
