:100000000C943D000C9400000C9400000C94000033
:100010000C9400000C9400000C9400000C94000060
:100020000C9400000C9400000C9400000C94000050
:100030000C9400000C9400000C9400000C94000040
:100040000C9400000C9400000C9400000C94000030
:040050000C9400000C
:10007A00BFE5BDBFB4E0BEBFB1E0BABBB1E0BBBB38
:0C008A00E9DFB0E0BBBBE6DFF9CFFFCF41
:10005E00B0E0B2BFB6E9BCBFB9E0B3BF08B702703B
:0C006E00003009F4FBCFB2E0B8BF0895E9
:0A00540005900D920197E1F7089561
:00000001FF
