:100000000C942F000C9400000C9400000C94000041
:100010000C9400000C9400000C9400000C94000060
:100020000C9400000C9400000C9400000C94000050
:100030000C9400000C9400000C9400000C94000040
:100040000C9400000C9400000C9400000C94000030
:040050000C9400000C
:10005E00BFE5BDBFB4E0BEBFB1E0BABBB1E0BBBB54
:10006E001BE003E60A95F1F71A95E1F7B0E0BBBB8A
:10007E001BE003E60A95F1F71A95E1F7EFCFFFCFF4
:00008E0072
:0A00540005900D920197E1F7089561
:00000001FF
