:100000000C942F000C9400000C9400000C94000041
:100010000C9400000C9400000C9400000C94000060
:100020000C9400000C9400000C9400000C94000050
:100030000C9400000C9400000C9400000C94000040
:100040000C9400000C9400000C9400000C94000030
:040050000C9400000C
:10005E00BFE5BDBFB4E0BEBF00E010E0B8E0B7BB87
:10006E00B2E6B3BF103009F4003079F4BCECBCBF7B
:10007E002BEC1CEE05E80A95F1F71A95E1F72A9597
:10008E00D1F7000001E010E00EC0BAE5BCBF2BECCA
:10009E001CEE05E80A95F1F71A95E1F72A95D1F7C6
:0A00AE00000000E010E0DCCFFFCFFF
:0A00540005900D920197E1F7089561
:00000001FF
